{
  "contractName": "HODLing",
  "abi": [
    {
      "constant": false,
      "inputs": [
        {
          "internalType": "uint256",
          "name": "_time",
          "type": "uint256"
        }
      ],
      "name": "Lock",
      "outputs": [
        {
          "internalType": "uint256",
          "name": "",
          "type": "uint256"
        }
      ],
      "payable": true,
      "stateMutability": "payable",
      "type": "function"
    },
    {
      "constant": true,
      "inputs": [
        {
          "internalType": "uint16",
          "name": "_id",
          "type": "uint16"
        }
      ],
      "name": "checkTime",
      "outputs": [
        {
          "internalType": "uint256",
          "name": "",
          "type": "uint256"
        }
      ],
      "payable": false,
      "stateMutability": "view",
      "type": "function"
    },
    {
      "constant": false,
      "inputs": [
        {
          "internalType": "uint16",
          "name": "_id",
          "type": "uint16"
        }
      ],
      "name": "Withdraw",
      "outputs": [],
      "payable": true,
      "stateMutability": "payable",
      "type": "function"
    }
  ],
  "bytecode": "0x60806040526000805534801561001457600080fd5b50610840806100246000396000f3fe6080604052600436106100345760003560e01c806357424d5914610039578063895527561461007b578063e9b4ed9b146100ad575b600080fd5b6100656004803603602081101561004f57600080fd5b8101908080359060200190929190505050610100565b6040518082815260200191505060405180910390f35b6100ab6004803603602081101561009157600080fd5b81019080803561ffff1690602001909291905050506102a1565b005b3480156100b957600080fd5b506100ea600480360360208110156100d057600080fd5b81019080803561ffff169060200190929190505050610737565b6040518082815260200191505060405180910390f35b600080341161010e57600080fd5b6000600260003373ffffffffffffffffffffffffffffffffffffffff1673ffffffffffffffffffffffffffffffffffffffff168152602001908152602001600020600081819054906101000a900461ffff1660010191906101000a81548161ffff021916908361ffff16021790559050604051806060016040528042815260200162015180850242018152602001670de0b6b3a76400003402815250600160003373ffffffffffffffffffffffffffffffffffffffff1673ffffffffffffffffffffffffffffffffffffffff16815260200190815260200160002060008361ffff1661ffff1681526020019081526020016000206000820151816000015560208201518160010155604082015181600201559050506001600360003373ffffffffffffffffffffffffffffffffffffffff1673ffffffffffffffffffffffffffffffffffffffff16815260200190815260200160002060008361ffff1661ffff16815260200190815260200160002060006101000a81548160ff0219169083151502179055508061ffff16915050919050565b600360003373ffffffffffffffffffffffffffffffffffffffff1673ffffffffffffffffffffffffffffffffffffffff16815260200190815260200160002060008261ffff1661ffff16815260200190815260200160002060009054906101000a900460ff1661031057600080fd5b6000600360003373ffffffffffffffffffffffffffffffffffffffff1673ffffffffffffffffffffffffffffffffffffffff16815260200190815260200160002060008361ffff1661ffff16815260200190815260200160002060006101000a81548160ff021916908315150217905550600042600160003373ffffffffffffffffffffffffffffffffffffffff1673ffffffffffffffffffffffffffffffffffffffff16815260200190815260200160002060008461ffff1661ffff16815260200190815260200160002060010154106105395760006201518042600160003373ffffffffffffffffffffffffffffffffffffffff1673ffffffffffffffffffffffffffffffffffffffff16815260200190815260200160002060008661ffff1661ffff16815260200190815260200160002060010154038161045057fe5b049050620186a06000548161046157fe5b04652d79883d2000111561048757620186a081600054028161047f57fe5b049150610493565b80652d79883d20000291505b6000548211156104eb573373ffffffffffffffffffffffffffffffffffffffff166108fc6000549081150290604051600060405180830381858888f193505050501580156104e5573d6000803e3d6000fd5b50610533565b3373ffffffffffffffffffffffffffffffffffffffff166108fc839081150290604051600060405180830381858888f19350505050158015610531573d6000803e3d6000fd5b505b50610733565b6000600160003373ffffffffffffffffffffffffffffffffffffffff1673ffffffffffffffffffffffffffffffffffffffff16815260200190815260200160002060008461ffff1661ffff1681526020019081526020016000206001015442039050655af3107a4000620186a0600160003373ffffffffffffffffffffffffffffffffffffffff1673ffffffffffffffffffffffffffffffffffffffff16815260200190815260200160002060008661ffff1661ffff168152602001908152602001600020600201548161060957fe5b0411156106205780655af3107a400002915061068d565b80620186a0600160003373ffffffffffffffffffffffffffffffffffffffff1673ffffffffffffffffffffffffffffffffffffffff16815260200190815260200160002060008661ffff1661ffff168152602001908152602001600020600201548161068857fe5b040291505b3373ffffffffffffffffffffffffffffffffffffffff166108fc83600160003373ffffffffffffffffffffffffffffffffffffffff1673ffffffffffffffffffffffffffffffffffffffff16815260200190815260200160002060008761ffff1661ffff16815260200190815260200160002060020154039081150290604051600060405180830381858888f19350505050158015610730573d6000803e3d6000fd5b50505b5050565b6000600360003373ffffffffffffffffffffffffffffffffffffffff1673ffffffffffffffffffffffffffffffffffffffff16815260200190815260200160002060008361ffff1661ffff16815260200190815260200160002060009054906101000a900460ff166107a857600080fd5b600160003373ffffffffffffffffffffffffffffffffffffffff1673ffffffffffffffffffffffffffffffffffffffff16815260200190815260200160002060008361ffff1661ffff16815260200190815260200160002060010154905091905056fea265627a7a72315820e9993b2b9185eacc0004d8cb5fc02b70ace87ad6e7e15a6fba6d5a5451d2f71064736f6c63430005100032",
  "source": "pragma solidity >0.5.0<=0.6.0;\n\ncontract HODLing\n{\n    uint penalties=0;                                                                   //to keep track of how much penalty was imposed.\n\n    struct HOLD\n    {\n        uint booking_time;                                                              //Time at which holding was created.\n        uint mature_time;                                                               //Time at which holding can be withdrawn without penalties.\n        uint amount;                                                                    //Amount deposited in that holding.\n    } \n    mapping(address=>mapping(uint16=>HOLD)) holdings;                                   //to store holdings by users on the basis of id.\n    mapping(address=>uint16) counter;                                                   //for unique id of every holding created by a user.\n    mapping(address=>mapping(uint16=>bool)) marker;                                     //to check whether a holding is still active.\n\n    function Lock(uint _time) public payable returns(uint)                              //to create a new holding\n    {\n        require(msg.value>0 wei);\n        uint16 temp=++counter[msg.sender];\n        holdings[msg.sender][temp]=HOLD(now,now+(_time*1 days),msg.value*(10**18));\n        marker[msg.sender][temp]=true;\n        return temp;\n    }\n\n    function checkTime(uint16 _id) public view returns(uint)                            //to check the return time\n    {\n        require(marker[msg.sender][_id]);\n        return holdings[msg.sender][_id].mature_time;\n    }\n\n    function Withdraw(uint16 _id) public payable\n    {\n        require(marker[msg.sender][_id]);\n        marker[msg.sender][_id]=false;  \n        uint _amount;\n\n        if(holdings[msg.sender][_id].mature_time>=now)                                  //The user has to rewarded\n        {\n            uint number_of_days=(holdings[msg.sender][_id].mature_time-now)/1 days;\n            if((0.00005*(10**18))>((penalties)/100000))                                 //If 0.005% per day is cheaper for the contract.\n                _amount=(penalties*number_of_days)/100000;\n            else                                                                        //If 0.001 ETH per day is cheaper for the contract\n                _amount=0.00005*(10**18)* number_of_days;\n\n            if(_amount>penalties)                                                       //Checking if penalties has enough funds.\n                msg.sender.transfer(penalties);\n            else\n                msg.sender.transfer(_amount);\n        }\n        else                                                                            //The user has to be penalised.\n        {\n            uint number_of_days=now-holdings[msg.sender][_id].mature_time;\n            if((holdings[msg.sender][_id].amount/(10**5)) > (0.0001 * (10**18)))\n                _amount=0.0001 * (10**18) * number_of_days;\n            else\n                _amount=holdings[msg.sender][_id].amount/(10**5) * number_of_days;\n\n            msg.sender.transfer(holdings[msg.sender][_id].amount-_amount);\n        }\n    }\n}",
  "sourcePath": "/home/abhikedia/HODLing/contracts/HODLing.sol",
  "compiler": {
    "name": "solc",
    "version": "0.5.16+commit.9c3226ce.Emscripten.clang"
  },
  "schemaVersion": "3.3.1",
  "updatedAt": "2020-11-06T05:50:56.635Z",
  "devdoc": {
    "methods": {}
  },
  "userdoc": {
    "methods": {}
  }
}