{
  "contractName": "HODLing",
  "abi": [
    {
      "inputs": [],
      "stateMutability": "nonpayable",
      "type": "constructor"
    },
    {
      "anonymous": false,
      "inputs": [
        {
          "indexed": false,
          "internalType": "uint256",
          "name": "amount",
          "type": "uint256"
        },
        {
          "indexed": false,
          "internalType": "address",
          "name": "user",
          "type": "address"
        }
      ],
      "name": "transferred",
      "type": "event"
    },
    {
      "inputs": [
        {
          "internalType": "uint256",
          "name": "_time",
          "type": "uint256"
        }
      ],
      "name": "Lock",
      "outputs": [],
      "stateMutability": "payable",
      "type": "function"
    },
    {
      "inputs": [
        {
          "internalType": "uint16",
          "name": "_id",
          "type": "uint16"
        }
      ],
      "name": "getAmount",
      "outputs": [
        {
          "internalType": "uint256",
          "name": "",
          "type": "uint256"
        }
      ],
      "stateMutability": "view",
      "type": "function"
    },
    {
      "inputs": [],
      "name": "getLastId",
      "outputs": [
        {
          "internalType": "uint16",
          "name": "",
          "type": "uint16"
        }
      ],
      "stateMutability": "view",
      "type": "function"
    },
    {
      "inputs": [
        {
          "internalType": "uint16",
          "name": "_id",
          "type": "uint16"
        }
      ],
      "name": "checkTime",
      "outputs": [
        {
          "internalType": "uint256",
          "name": "",
          "type": "uint256"
        }
      ],
      "stateMutability": "view",
      "type": "function"
    },
    {
      "inputs": [
        {
          "internalType": "uint16",
          "name": "_id",
          "type": "uint16"
        }
      ],
      "name": "Withdraw",
      "outputs": [],
      "stateMutability": "payable",
      "type": "function"
    },
    {
      "inputs": [],
      "name": "getBalance",
      "outputs": [
        {
          "internalType": "uint256",
          "name": "",
          "type": "uint256"
        }
      ],
      "stateMutability": "view",
      "type": "function"
    },
    {
      "inputs": [],
      "name": "getPenalties",
      "outputs": [
        {
          "internalType": "uint256",
          "name": "",
          "type": "uint256"
        }
      ],
      "stateMutability": "view",
      "type": "function"
    }
  ],
  "bytecode": "0x60806040526000805534801561001457600080fd5b5033600160006101000a81548173ffffffffffffffffffffffffffffffffffffffff021916908373ffffffffffffffffffffffffffffffffffffffff160217905550610c3e806100656000396000f3fe6080604052600436106100705760003560e01c8063895527561161004e5780638955275614610121578063a8e5862d14610153578063e6ef2a3814610186578063e9b4ed9b146101b157610070565b806312065fe01461007557806319f32176146100a057806357424d59146100f3575b600080fd5b34801561008157600080fd5b5061008a610204565b6040518082815260200191505060405180910390f35b3480156100ac57600080fd5b506100dd600480360360208110156100c357600080fd5b81019080803561ffff169060200190929190505050610266565b6040518082815260200191505060405180910390f35b61011f6004803603602081101561010957600080fd5b81019080803590602001909291905050506102cb565b005b6101516004803603602081101561013757600080fd5b81019080803561ffff16906020019092919050505061046f565b005b34801561015f57600080fd5b50610168610a7b565b604051808261ffff1661ffff16815260200191505060405180910390f35b34801561019257600080fd5b5061019b610ad0565b6040518082815260200191505060405180910390f35b3480156101bd57600080fd5b506101ee600480360360208110156101d457600080fd5b81019080803561ffff169060200190929190505050610b34565b6040518082815260200191505060405180910390f35b6000600160009054906101000a900473ffffffffffffffffffffffffffffffffffffffff1673ffffffffffffffffffffffffffffffffffffffff163373ffffffffffffffffffffffffffffffffffffffff161461026057600080fd5b47905090565b6000600260003373ffffffffffffffffffffffffffffffffffffffff1673ffffffffffffffffffffffffffffffffffffffff16815260200190815260200160002060008361ffff1661ffff168152602001908152602001600020600201549050919050565b600034116102d857600080fd5b600081116102e557600080fd5b6000600360003373ffffffffffffffffffffffffffffffffffffffff1673ffffffffffffffffffffffffffffffffffffffff168152602001908152602001600020600081819054906101000a900461ffff1660010191906101000a81548161ffff021916908361ffff16021790559050604051806060016040528042815260200162015180840242018152602001670de0b6b3a76400003402815250600260003373ffffffffffffffffffffffffffffffffffffffff1673ffffffffffffffffffffffffffffffffffffffff16815260200190815260200160002060008361ffff1661ffff1681526020019081526020016000206000820151816000015560208201518160010155604082015181600201559050506001600460003373ffffffffffffffffffffffffffffffffffffffff1673ffffffffffffffffffffffffffffffffffffffff16815260200190815260200160002060008361ffff1661ffff16815260200190815260200160002060006101000a81548160ff0219169083151502179055505050565b600460003373ffffffffffffffffffffffffffffffffffffffff1673ffffffffffffffffffffffffffffffffffffffff16815260200190815260200160002060008261ffff1661ffff16815260200190815260200160002060009054906101000a900460ff166104de57600080fd5b6000600460003373ffffffffffffffffffffffffffffffffffffffff1673ffffffffffffffffffffffffffffffffffffffff16815260200190815260200160002060008361ffff1661ffff16815260200190815260200160002060006101000a81548160ff021916908315150217905550600042600260003373ffffffffffffffffffffffffffffffffffffffff1673ffffffffffffffffffffffffffffffffffffffff16815260200190815260200160002060008461ffff1661ffff16815260200190815260200160002060010154116107cb57600062015180600260003373ffffffffffffffffffffffffffffffffffffffff1673ffffffffffffffffffffffffffffffffffffffff16815260200190815260200160002060008561ffff1661ffff1681526020019081526020016000206001015442038161061e57fe5b049050620186a06000548161062f57fe5b04652d79883d2000111561065557620186a081600054028161064d57fe5b049150610661565b80652d79883d20000291505b60005482111561067c5760005491506000808190555061068c565b8160008082825403925050819055505b3373ffffffffffffffffffffffffffffffffffffffff16600260003373ffffffffffffffffffffffffffffffffffffffff1673ffffffffffffffffffffffffffffffffffffffff16815260200190815260200160002060008561ffff1661ffff16815260200190815260200160002050507f56c2e7e77828864604b77615a940a062264e79b54565402c5ac37aececb82605600260003373ffffffffffffffffffffffffffffffffffffffff1673ffffffffffffffffffffffffffffffffffffffff16815260200190815260200160002060008561ffff1661ffff16815260200190815260200160002060020154830133604051808381526020018273ffffffffffffffffffffffffffffffffffffffff1673ffffffffffffffffffffffffffffffffffffffff1681526020019250505060405180910390a150610a77565b60006201518042600260003373ffffffffffffffffffffffffffffffffffffffff1673ffffffffffffffffffffffffffffffffffffffff16815260200190815260200160002060008661ffff1661ffff16815260200190815260200160002060010154038161083657fe5b049050655af3107a4000620186a0600260003373ffffffffffffffffffffffffffffffffffffffff1673ffffffffffffffffffffffffffffffffffffffff16815260200190815260200160002060008661ffff1661ffff16815260200190815260200160002060020154816108a757fe5b0411156108be5780655af3107a400002915061092b565b80620186a0600260003373ffffffffffffffffffffffffffffffffffffffff1673ffffffffffffffffffffffffffffffffffffffff16815260200190815260200160002060008661ffff1661ffff168152602001908152602001600020600201548161092657fe5b040291505b8160008082825401925050819055503373ffffffffffffffffffffffffffffffffffffffff1682600260003373ffffffffffffffffffffffffffffffffffffffff1673ffffffffffffffffffffffffffffffffffffffff16815260200190815260200160002060008661ffff1661ffff1681526020019081526020016000205050507f56c2e7e77828864604b77615a940a062264e79b54565402c5ac37aececb8260582600260003373ffffffffffffffffffffffffffffffffffffffff1673ffffffffffffffffffffffffffffffffffffffff16815260200190815260200160002060008661ffff1661ffff168152602001908152602001600020600201540333604051808381526020018273ffffffffffffffffffffffffffffffffffffffff1673ffffffffffffffffffffffffffffffffffffffff1681526020019250505060405180910390a1505b5050565b6000600360003373ffffffffffffffffffffffffffffffffffffffff1673ffffffffffffffffffffffffffffffffffffffff16815260200190815260200160002060009054906101000a900461ffff16905090565b6000600160009054906101000a900473ffffffffffffffffffffffffffffffffffffffff1673ffffffffffffffffffffffffffffffffffffffff163373ffffffffffffffffffffffffffffffffffffffff1614610b2c57600080fd5b600054905090565b6000600460003373ffffffffffffffffffffffffffffffffffffffff1673ffffffffffffffffffffffffffffffffffffffff16815260200190815260200160002060008361ffff1661ffff16815260200190815260200160002060009054906101000a900460ff16610ba557600080fd5b600260003373ffffffffffffffffffffffffffffffffffffffff1673ffffffffffffffffffffffffffffffffffffffff16815260200190815260200160002060008361ffff1661ffff16815260200190815260200160002060010154905091905056fea26469706673582212200aa10fb8cfcde15824c9ed2e3e0c1c52c3be8c0c42c3217979d37bbbf7af55a264736f6c63430006000033",
  "source": "pragma solidity >0.5.0<=0.6.0;\n\ncontract HODLing\n{\n    event transferred(uint amount, address user);\n\n    uint penalties=0;                                                                   //to keep track of how much penalty was imposed.\n    address owner;\n\n    constructor() public\n    {\n        owner=msg.sender;\n    }\n\n    struct HOLD\n    {\n        uint booking_time;                                                              //Time at which holding was created.\n        uint mature_time;                                                               //Time at which holding can be withdrawn without penalties.\n        uint amount;                                                                    //Amount deposited in that holding.\n    } \n    mapping(address=>mapping(uint16=>HOLD)) holdings;                                   //to store holdings by users on the basis of id.\n    mapping(address=>uint16) counter;                                                   //for unique id of every holding created by a user.\n    mapping(address=>mapping(uint16=>bool)) marker;                                     //to check whether a holding is still active.\n\n    function Lock(uint _time) public payable                                            //to create a new holding, returns unique id of holding\n    {\n        require(msg.value>0 wei);\n        require(_time>0);\n        uint16 temp=++counter[msg.sender];\n        holdings[msg.sender][temp]=HOLD(now,now+(_time*1 days),msg.value*(10**18));\n        marker[msg.sender][temp]=true;\n    }\n\n    function getAmount(uint16 _id) public view returns(uint)                            //to be executed if a person looses transaction id.\n    {\n        return holdings[msg.sender][_id].amount;\n    }\n\n    function getLastId() public view returns(uint16)\n    {\n        return counter[msg.sender];\n    }\n\n    function checkTime(uint16 _id) public view returns(uint)                            //to check the return time\n    {\n        require(marker[msg.sender][_id]);\n        return holdings[msg.sender][_id].mature_time;\n    }\n\n    function Withdraw(uint16 _id) public payable\n    {\n        require(marker[msg.sender][_id]);\n        marker[msg.sender][_id]=false;  \n        uint _amount;\n\n        if(holdings[msg.sender][_id].mature_time<=now)                                  //The user has to rewarded\n        {\n            uint number_of_days=(now-holdings[msg.sender][_id].mature_time)/1 days;\n            if((0.00005*(10**18))>((penalties)/100000))                                 //If 0.005% per day is cheaper for the contract.\n                _amount=(penalties*number_of_days)/100000;\n            else                                                                        //If 0.001 ETH per day is cheaper for the contract\n                _amount=0.00005*(10**18)* number_of_days;\n\n            if(_amount>penalties)                                                       //Checking if penalties has enough funds.\n            {\n                _amount=penalties;\n                penalties=0;\n            }\n            else\n                penalties-=_amount;\n    \n            msg.sender.call.value(_amount+holdings[msg.sender][_id].amount);\n            emit transferred(_amount+holdings[msg.sender][_id].amount,msg.sender);\n        }\n        else                                                                            //The user has to be penalised.\n        {\n            uint number_of_days=(holdings[msg.sender][_id].mature_time-now)/1 days;\n            if((holdings[msg.sender][_id].amount/(10**5)) > (0.0001 * (10**18)))\n                _amount=0.0001 * (10**18) * number_of_days;\n            else\n                _amount=holdings[msg.sender][_id].amount/(10**5) * number_of_days;\n\n            penalties+=_amount;\n            msg.sender.call.value(holdings[msg.sender][_id].amount-_amount);\n            emit transferred(holdings[msg.sender][_id].amount-_amount,msg.sender);\n        }\n    }\n\n    function getBalance() public view returns(uint)                                     //Get balance of the contract\n    {\n        require(msg.sender==owner);\n        return address(this).balance;\n    }\n\n    function getPenalties() public view returns(uint)                                   //Get current amount in penalties\n    {\n        require(msg.sender==owner);\n        return penalties;\n    }\n}",
  "sourcePath": "/home/abhikedia/HODLing/contracts/HODLing.sol",
  "compiler": {
    "name": "solc",
    "version": "0.6.0+commit.26b70077.Emscripten.clang"
  },
  "schemaVersion": "3.3.1",
  "updatedAt": "2020-11-06T12:58:45.669Z",
  "devdoc": {
    "methods": {}
  },
  "userdoc": {
    "methods": {}
  }
}