{
  "contractName": "HODLing",
  "abi": [
    {
      "inputs": [],
      "payable": false,
      "stateMutability": "nonpayable",
      "type": "constructor"
    },
    {
      "constant": false,
      "inputs": [
        {
          "name": "_time",
          "type": "uint256"
        }
      ],
      "name": "Lock",
      "outputs": [
        {
          "name": "",
          "type": "uint256"
        }
      ],
      "payable": true,
      "stateMutability": "payable",
      "type": "function"
    },
    {
      "constant": true,
      "inputs": [
        {
          "name": "_id",
          "type": "uint16"
        }
      ],
      "name": "checkTime",
      "outputs": [
        {
          "name": "",
          "type": "uint256"
        }
      ],
      "payable": false,
      "stateMutability": "view",
      "type": "function"
    },
    {
      "constant": false,
      "inputs": [
        {
          "name": "_id",
          "type": "uint16"
        }
      ],
      "name": "Withdraw",
      "outputs": [
        {
          "name": "",
          "type": "uint256"
        }
      ],
      "payable": true,
      "stateMutability": "payable",
      "type": "function"
    },
    {
      "constant": true,
      "inputs": [],
      "name": "getBalance",
      "outputs": [
        {
          "name": "",
          "type": "uint256"
        }
      ],
      "payable": false,
      "stateMutability": "view",
      "type": "function"
    },
    {
      "constant": true,
      "inputs": [],
      "name": "getPenalties",
      "outputs": [
        {
          "name": "",
          "type": "uint256"
        }
      ],
      "payable": false,
      "stateMutability": "view",
      "type": "function"
    }
  ],
  "bytecode": "0x60806040526000805534801561001457600080fd5b5033600160006101000a81548173ffffffffffffffffffffffffffffffffffffffff021916908373ffffffffffffffffffffffffffffffffffffffff160217905550610a77806100656000396000f3fe608060405260043610610067576000357c01000000000000000000000000000000000000000000000000000000009004806312065fe01461006c57806357424d591461009757806389552756146100d9578063e6ef2a381461011f578063e9b4ed9b1461014a575b600080fd5b34801561007857600080fd5b5061008161019d565b6040518082815260200191505060405180910390f35b6100c3600480360360208110156100ad57600080fd5b8101908080359060200190929190505050610218565b6040518082815260200191505060405180910390f35b610109600480360360208110156100ef57600080fd5b81019080803561ffff1690602001909291905050506103bc565b6040518082815260200191505060405180910390f35b34801561012b57600080fd5b5061013461090f565b6040518082815260200191505060405180910390f35b34801561015657600080fd5b506101876004803603602081101561016d57600080fd5b81019080803561ffff169060200190929190505050610975565b6040518082815260200191505060405180910390f35b6000600160009054906101000a900473ffffffffffffffffffffffffffffffffffffffff1673ffffffffffffffffffffffffffffffffffffffff163373ffffffffffffffffffffffffffffffffffffffff161415156101fb57600080fd5b3073ffffffffffffffffffffffffffffffffffffffff1631905090565b6000803411151561022857600080fd5b6000600360003373ffffffffffffffffffffffffffffffffffffffff1673ffffffffffffffffffffffffffffffffffffffff168152602001908152602001600020600081819054906101000a900461ffff1660010191906101000a81548161ffff021916908361ffff1602179055905060606040519081016040528042815260200162015180850242018152602001670de0b6b3a76400003402815250600260003373ffffffffffffffffffffffffffffffffffffffff1673ffffffffffffffffffffffffffffffffffffffff16815260200190815260200160002060008361ffff1661ffff1681526020019081526020016000206000820151816000015560208201518160010155604082015181600201559050506001600460003373ffffffffffffffffffffffffffffffffffffffff1673ffffffffffffffffffffffffffffffffffffffff16815260200190815260200160002060008361ffff1661ffff16815260200190815260200160002060006101000a81548160ff0219169083151502179055508061ffff16915050919050565b6000600460003373ffffffffffffffffffffffffffffffffffffffff1673ffffffffffffffffffffffffffffffffffffffff16815260200190815260200160002060008361ffff1661ffff16815260200190815260200160002060009054906101000a900460ff16151561042f57600080fd5b6000600460003373ffffffffffffffffffffffffffffffffffffffff1673ffffffffffffffffffffffffffffffffffffffff16815260200190815260200160002060008461ffff1661ffff16815260200190815260200160002060006101000a81548160ff021916908315150217905550600042600260003373ffffffffffffffffffffffffffffffffffffffff1673ffffffffffffffffffffffffffffffffffffffff16815260200190815260200160002060008561ffff1661ffff168152602001908152602001600020600101541115156106bf57600062015180600260003373ffffffffffffffffffffffffffffffffffffffff1673ffffffffffffffffffffffffffffffffffffffff16815260200190815260200160002060008661ffff1661ffff16815260200190815260200160002060010154420381151561057357fe5b049050620186a060005481151561058657fe5b04652d79883d200011156105ae57620186a081600054028115156105a657fe5b0491506105ba565b80652d79883d20000291505b6000548211156105d5576000549150600080819055506105e5565b8160008082825403925050819055505b3373ffffffffffffffffffffffffffffffffffffffff16600260003373ffffffffffffffffffffffffffffffffffffffff1673ffffffffffffffffffffffffffffffffffffffff16815260200190815260200160002060008661ffff1661ffff1681526020019081526020016000205050600260003373ffffffffffffffffffffffffffffffffffffffff1673ffffffffffffffffffffffffffffffffffffffff16815260200190815260200160002060008561ffff1661ffff16815260200190815260200160002060020154600054019250505061090a565b60006201518042600260003373ffffffffffffffffffffffffffffffffffffffff1673ffffffffffffffffffffffffffffffffffffffff16815260200190815260200160002060008761ffff1661ffff168152602001908152602001600020600101540381151561072c57fe5b049050655af3107a4000620186a0600260003373ffffffffffffffffffffffffffffffffffffffff1673ffffffffffffffffffffffffffffffffffffffff16815260200190815260200160002060008761ffff1661ffff1681526020019081526020016000206002015481151561079f57fe5b0411156107b65780655af3107a4000029150610825565b80620186a0600260003373ffffffffffffffffffffffffffffffffffffffff1673ffffffffffffffffffffffffffffffffffffffff16815260200190815260200160002060008761ffff1661ffff1681526020019081526020016000206002015481151561082057fe5b040291505b8160008082825401925050819055503373ffffffffffffffffffffffffffffffffffffffff1682600260003373ffffffffffffffffffffffffffffffffffffffff1673ffffffffffffffffffffffffffffffffffffffff16815260200190815260200160002060008761ffff1661ffff16815260200190815260200160002050505081600260003373ffffffffffffffffffffffffffffffffffffffff1673ffffffffffffffffffffffffffffffffffffffff16815260200190815260200160002060008661ffff1661ffff1681526020019081526020016000206002015403925050505b919050565b6000600160009054906101000a900473ffffffffffffffffffffffffffffffffffffffff1673ffffffffffffffffffffffffffffffffffffffff163373ffffffffffffffffffffffffffffffffffffffff1614151561096d57600080fd5b600054905090565b6000600460003373ffffffffffffffffffffffffffffffffffffffff1673ffffffffffffffffffffffffffffffffffffffff16815260200190815260200160002060008361ffff1661ffff16815260200190815260200160002060009054906101000a900460ff1615156109e857600080fd5b600260003373ffffffffffffffffffffffffffffffffffffffff1673ffffffffffffffffffffffffffffffffffffffff16815260200190815260200160002060008361ffff1661ffff16815260200190815260200160002060010154905091905056fea165627a7a7230582033726641574251dd06efaec1f52b8aa160d5d69a82981818c5872155cee7e89a0029",
  "source": "pragma solidity >0.5.0<=0.6.0;\n\ncontract HODLing\n{\n    uint penalties=0;                                                                   //to keep track of how much penalty was imposed.\n    address owner;\n\n    constructor() public\n    {\n        owner=msg.sender;\n    }\n\n    struct HOLD\n    {\n        uint booking_time;                                                              //Time at which holding was created.\n        uint mature_time;                                                               //Time at which holding can be withdrawn without penalties.\n        uint amount;                                                                    //Amount deposited in that holding.\n    } \n    mapping(address=>mapping(uint16=>HOLD)) holdings;                                   //to store holdings by users on the basis of id.\n    mapping(address=>uint16) counter;                                                   //for unique id of every holding created by a user.\n    mapping(address=>mapping(uint16=>bool)) marker;                                     //to check whether a holding is still active.\n\n    function Lock(uint _time) public payable returns(uint)                              //to create a new holding, returns unique id of holding\n    {\n        require(msg.value>0 wei);\n        uint16 temp=++counter[msg.sender];\n        holdings[msg.sender][temp]=HOLD(now,now+(_time*1 days),msg.value*(10**18));\n        marker[msg.sender][temp]=true;\n        return temp;\n    }\n\n    function checkTime(uint16 _id) public view returns(uint)                            //to check the return time\n    {\n        require(marker[msg.sender][_id]);\n        return holdings[msg.sender][_id].mature_time;\n    }\n\n    function Withdraw(uint16 _id) public payable returns(uint)                          //returns the amount received\n    {\n        require(marker[msg.sender][_id]);\n        marker[msg.sender][_id]=false;  \n        uint _amount;\n\n        if(holdings[msg.sender][_id].mature_time<=now)                                  //The user has to rewarded\n        {\n            uint number_of_days=(now-holdings[msg.sender][_id].mature_time)/1 days;\n            if((0.00005*(10**18))>((penalties)/100000))                                 //If 0.005% per day is cheaper for the contract.\n                _amount=(penalties*number_of_days)/100000;\n            else                                                                        //If 0.001 ETH per day is cheaper for the contract\n                _amount=0.00005*(10**18)* number_of_days;\n\n            if(_amount>penalties)                                                       //Checking if penalties has enough funds.\n            {\n                _amount=penalties;\n                penalties=0;\n            }\n            else\n                penalties-=_amount;\n    \n            msg.sender.call.value(_amount+holdings[msg.sender][_id].amount);\n            return penalties+holdings[msg.sender][_id].amount;\n        }\n        else                                                                            //The user has to be penalised.\n        {\n            uint number_of_days=(holdings[msg.sender][_id].mature_time-now)/1 days;\n            if((holdings[msg.sender][_id].amount/(10**5)) > (0.0001 * (10**18)))\n                _amount=0.0001 * (10**18) * number_of_days;\n            else\n                _amount=holdings[msg.sender][_id].amount/(10**5) * number_of_days;\n\n            penalties+=_amount;\n            msg.sender.call.value(holdings[msg.sender][_id].amount-_amount);\n            return holdings[msg.sender][_id].amount-_amount;\n        }\n    }\n\n    function getBalance() public view returns(uint)                                     //Get balance of the contract\n    {\n        require(msg.sender==owner);\n        return address(this).balance;\n    }\n\n    function getPenalties() public view returns(uint)                                   //Get current amount in penalties\n    {\n        require(msg.sender==owner);\n        return penalties;\n    }\n}",
  "sourcePath": "/home/abhikedia/HODLing/contracts/HODLing.sol",
  "compiler": {
    "name": "solc",
    "version": "0.5.1+commit.c8a2cb62.Emscripten.clang"
  },
  "schemaVersion": "3.3.1",
  "updatedAt": "2020-11-06T07:58:41.264Z",
  "devdoc": {
    "methods": {}
  },
  "userdoc": {
    "methods": {}
  }
}